:100000000C9451000C9479000C9479000C947900B4
:100010000C9479000C9479000C9479000C9479007C
:100020000C9479000C9479000C9479000C9479006C
:100030000C9479000C9479000C9479000C9479005C
:100040000C9479000C9479000C9479000C9479004C
:100050000C9479000C9479000C9479000C9479003C
:100060000C9479000C9479000C9479000C9479002C
:100070000C9479000C9479000C9479000C9479001C
:100080000C9479000C9479000C9479000C9479000C
:100090000C9458030C940F030C94E9020C9479000F
:1000A000BC0311241FBECFEFCDBFDFE3DEBF18E2DC
:1000B000A0E0B8E2E8E2FBE002C005900D92A430B7
:1000C000B107D9F728E2A4E0B8E201C01D92A33B32
:1000D000B207E1F710E0C1E5D0E004C02197FE01CE
:1000E0000E943C05C035D107C9F70E94E3030C9478
:1000F00051050C940000FC0154894589252F30E0FE
:10010000842F90E0821B930B541710F0CF96089524
:1001100001970895FC0192898389981761F0A3895A
:10012000AE0FBF2FB11D59968C9193899F5F9F731E
:10013000938B90E008958FEF9FEF0895FC019289D3
:100140008389981731F08389E80FF11D818D90E044
:1001500008958FEF9FEF0895FC0192892389892FDD
:1001600090E0805C9F4F821B91098F7399270895BF
:10017000CF93DF93EC01E881F9810680F781E02DD0
:100180000995EC85FD8586818F738683EC85FD85D9
:1001900085818F7585838B898A8B198ADF91CF91B1
:1001A0000895CF93DF93FC0194898589C485D58513
:1001B000981306C08D818F7D8D83DF91CF91089537
:1001C000A589AE0FBF2FB11DA75ABF4F2C918589AE
:1001D00090E001968F739927858B80E48C83A485AA
:1001E000B58512962C93948985899813E6CFA485BA
:1001F000B58515968C9115978F7D15968C9387896B
:100200008823D9F2808D80931301178AD6CFDC0121
:100210001C96ED91FC910FB607FE03C0258125FDCC
:1002200004C0248125FD0C94D1000895EF92FF9223
:100230000F931F93CF93DF93EC0181E0898B9C890F
:100240008D8998131CC0AC85BD8514968C9114972C
:1002500085FF15C012966C93AC85BD8580E414961D
:100260008C93EC85FD8585818F7D858381E090E091
:10027000DF91CF911F910F91FF90EF9008958091A2
:10028000110180FF08C080911301888F8E898093AF
:10029000130181E08F8BF62E0C8910E00F5F1F4F4A
:1002A0000F731127E02E8D898E1104C0CE010E949C
:1002B0000701F9CFEC89EC0FFD2FF11DE75AFF4F35
:1002C000F0820C8BEC85FD8585818062CECFCF934B
:1002D000DF93FC0121892223C9F0EC0180911101F7
:1002E00080FF08C080911301808F8689809313015D
:1002F00081E0878BEC85FD85858185FD03C0848148
:1003000086FD04C0CE010E940701F4CFDF91CF919A
:100310000895AF92BF92CF92DF92EF92FF920F9328
:100320001F93CF93DF936C017B018B01040F151F8B
:10033000EB015E01AE18BF08C017D10759F06991F3
:10034000D601ED91FC910190F081E02DC601099557
:10035000892B79F7C501DF91CF911F910F91FF9004
:10036000EF90DF90CF90BF90AF90089581E0089517
:10037000DC01ED91FC910088F189E02D23E030E073
:100380000994CF93DF9390E0FC01E25FF44B20816E
:100390002F3F69F0FC01EC50F54BE08130E2E39F28
:1003A000F0011124FC5F6130710521F42183DF919C
:1003B000CF9108958652954BEC01A881AF3F69F02B
:1003C000CF014096A80FB92FB11D9FB7F894228393
:1003D0008C9188608C939FBFEACFB0E0A0E0F5CF0E
:1003E000CF92DF92EF92FF920F931F93CF93DF9301
:1003F000EC016A017B01022F8989882339F0E881A9
:10040000F9810288F389E02DCE01099598898091C0
:10041000E205892B8093E2051FB7F89460E070E253
:1004200081EA97E0A70196010E94E80469017A0138
:100430008FEFC81AD80AE80AF80AF694E794D79416
:10044000C794EC85FD8586818D7F8683EC85FD854F
:1004500086818683198AA09123110A2E000CBB0B7A
:10046000A70196010E94340520E034E040E050E00E
:100470000E940A05EC85FD85C20ED31EE41EF51E02
:10048000C086D186EC85FD850783EC85FD85868158
:10049000806C8683EC85FD858581806885838E856B
:1004A0008B3220F462E070E00E94C1018F858B32B4
:1004B000F8F490E0FC01E25FF44B40814F3FC1F063
:1004C000FC01E054F54BE081EE2329F0E13009F125
:1004D00010F0E63080F1FC01EC50F54BE081B0E229
:1004E000EB9FF0011124FC5F2081242371F14583EF
:1004F0008F858B3220F461E070E00E94C1011FBF44
:10050000DF91CF911F910F91FF90EF90DF90CF90EF
:1005100008956091010AFC01E652F54B50815C5F41
:1005200021E030E001C0220F5A95EAF720952623FA
:100530002093010AD0CFA0E1EA9FF0011124E05AF4
:10054000F54F21812F7E2183C6CF8652954BDC014A
:100550008C91309761F08F3F51F07096E80FF11D4C
:100560009FB7F8948081886080839FBFC1CFF0E0FF
:10057000E0E0F6CFCF93DF938FB7F8942091142863
:10058000309115284091162850911728E091BA0A09
:100590009091B60A90FF06C02F5F3F4F4F4F5F4FBD
:1005A000E091BA0A8FBFA0911228B0911328C09190
:1005B0001028D09111280E942905EC9F9001ED9FF1
:1005C000300D1124620F731F811D911DDF91CF919A
:1005D00008951F920F920FB60F9211242F933F93FD
:1005E0004F935F936F937F938F939F93AF93BF933B
:1005F000EF93FF9388E198E20E94D100FF91EF9181
:10060000BF91AF919F918F917F916F915F914F912A
:100610003F912F910F900FBE0F901F9018951F9232
:100620000F920FB60F9211242F933F934F935F9326
:100630006F937F938F939F93AF93BF93EF93FF93AA
:10064000E0912428F0912528818181FD2FC06081CF
:1006500080912A288F5F8F7390912B28891741F002
:10066000E0912A28F0E0E85EF74D618F80932A2818
:100670008091B1289091B228009739F0DC01ED917A
:10068000FC910190F081E02D0995FF91EF91BF91D0
:10069000AF919F918F917F916F915F914F913F911A
:1006A0002F910F900FBE0F901F9018958081EDCF66
:1006B0001F920F920FB60F9211242F933F934F93D7
:1006C0005F936F937F938F939F93AF93BF9340916B
:1006D0000C2850910D2860910E2870910F28809160
:1006E0000A2890910B282091082830910928420F60
:1006F000531F611D711D2091062830910728820F1C
:10070000931F883E23E0920730F0885E93404F5F4E
:100710005F4F6F4F7F4F80930A2890930B28409331
:100720000C2850930D2860930E2870930F28809109
:10073000142890911528A0911628B0911728019699
:10074000A11DB11D8093142890931528A0931628FD
:10075000B093172881E08093B60ABF91AF919F9123
:100760008F917F916F915F914F913F912F910F905A
:100770000FBE0F901F901895E8E1F8E212821382E5
:1007800088EE93E0A0E0B0E084839583A683B783EE
:100790008AEA9AE48083918380E698E0848795874B
:1007A00088E1868789E1878780E4808B128A138AB3
:1007B000148A158A86E2868B178A108E1092B128C9
:1007C0001092B228089588ED90E084BF9093610064
:1007D00080E094E2A4EFB0E0809300289093012899
:1007E000A0930228B093032880910206866080932C
:1007F00002068091000681608093000680910206C7
:100800008F7C809302068091A0008F788093A00057
:10081000809102068061809302061092E20581E0D9
:100820008093E40583E08093010A8FEF90E080934A
:10083000260A9093270A80E890E08093380A9093E4
:10084000390A80933A0A90933B0A80933C0A90932A
:100850003D0A8BE08093000A8091E50581608093DA
:10086000E5058091E50582608093E505E0E8FAE022
:1008700037E02FEF90E885E03183248795878083E8
:100880007096E03C4AE0F407B9F780E094E080938A
:1008900012289093132880911228909113282FEFFB
:1008A00030E0B9010E94D40460931028709311289D
:1008B0008091122890911328E8EEF3E0BF010E9486
:1008C000D40460930828709309288091122890918D
:1008D0001328BF010E94D404809306289093072810
:1008E0002093BC0A3093BD0A8091B50A8160809341
:1008F000B50A84E08093B00A8091B00A8160809349
:10090000B00A789440E855E260E070E088E198E24F
:100910000E94B8010E94BA026B017C0120E2C20E63
:1009200021EAD21E27E0E21EF11C40E2C41641EA91
:10093000D40647E0E406F10438F40E94BA02C61671
:10094000D706E806F906C8F30E94BA026C157D05C1
:100950008E059F05C8F361E070E082E00E94C1014E
:1009600061E070E083E00E94C10161E070E084E03A
:100970000E94C10161E070E085E00E94C10161E078
:1009800070E082E00E94C10161E070E083E00E94BB
:10099000C10161E070E08AE00E94C10161E070E0A5
:1009A0008DE00E94C101FFCFAA1BBB1B51E107C014
:1009B000AA1FBB1FA617B70710F0A61BB70B881FEF
:1009C000991F5A95A9F780959095BC01CD0108957E
:1009D000A1E21A2EAA1BBB1BFD010DC0AA1FBB1F43
:1009E000EE1FFF1FA217B307E407F50720F0A21BB5
:1009F000B30BE40BF50B661F771F881F991F1A9422
:100A000069F760957095809590959B01AC01BD014B
:100A1000CF010895052E97FB1EF400940E94210536
:100A200057FD07D00E94E80407FC03D04EF40C9455
:100A3000210550954095309521953F4F4F4F5F4F81
:100A4000089590958095709561957F4F8F4F9F4F3A
:100A500008950E944205A59F900DB49F900DA49FFC
:100A6000800D911D11240895B7FF0C9429050E9453
:100A70002905821B930B0895EE0FFF1F0590F4913B
:100A8000E02D0994A29FB001B39FC001A39F700DF8
:100A9000811D1124911DB29F700D811D1124911D86
:060AA0000895F894FFCF59
:100AA60000000000160189017B006701AC008A0086
:100AB6009E00B801F001B800B60100000003000175
:100AC600020000010100000000000000000000001C
:100AD60000000000050400050602040103000100F1
:100AE60001020302010002030405020305040202D7
:100AF60000050201050004010104040403030303C5
:100B06000505030300000101201001204004100226
:100B16000801020102040804020104081020040866
:020B260020109D
:040B28000024F400B1
:00000001FF
